:040000008A11FA2F38
:1008C80083120313A101B430210203180800013078
:1008D800A0002008A107672C83120313A1008A1126
:1008E80089248A118312031321088A117C240800A1
:1008F80083120313A00086120612200888008615AA
:100908000000831203138611080083160313881747
:1009180083120313861206168615881B912C8611DE
:10092800831603138813080083120313A0008A1187
:100938008924831203138616061220088800861558
:100948000000831203138611080083120313A80002
:100958002508A7002708A20028088A1108258A1157
:100968008312031326088A1198240800831203139C
:10097800A5008A11D3248A11A2308A1144258A112C
:100988008312031325088A1144258A11831203133D
:1009980024088A1144258A118A11ED24080083123B
:1009A80003138715000000000000000000008312F8
:1009B800031307168A1164248A118312031307127A
:1009C8008A1164248A118312031387118A116424FB
:1009D800080083120313071207120000000000002A
:1009E800000000008312031387158A1164248A11FA
:1009F8008312031307168A1164248A1183120313BE
:100A080087118A116424080083120313A4000F308D
:100A1800A3002308A4050130A3002308A205220887
:100A2800031D1B2D240880388A11702408008312A6
:100A380003132408403E80388A117024080083126A
:100A480003132C1C2B2D8312031307162E2D831230
:100A580003130712000000000000000000008312CA
:100A68000313871500000000000000000000831237
:100A780003138711000000000000000000000800B8
:100A880083120313A200A301083023020318642D64
:100A9800A21F502D2C14512D2C102208A000200725
:100AA800A1002108A2008A1123258A11013083128E
:100AB8000313A0002008A30708302302031C4C2DB1
:100AC8008A116725080083120313AC1483160313D5
:100AD80007168312031387150000000000000000AA
:100AE800000083120313AC10071AAC1400000000B6
:100AF80000000000000083120313871100000000AB
:100B08000000000000008316031307120800831278
:100B18000313A5008A11D3248A11A2308A1144250F
:100B28008A118312031325088A1144258A118A1110
:100B3800D3248A11A3308A1144258A118A11D92510
:100B48008A1183120313A4002408A6008A11ED2435
:100B5800831203132608080083120313A201A301BA
:100B680021082302031DBA2D2008220203180800B9
:100B7800A401A501003025020A3003192402031834
:100B8800D22D0130A4070318A50A0030A5070030AC
:100B980025020A3003192402031CC52D0130A207BF
:100BA8000318A30A0030A307B42D83120313A2016C
:100BB800083022020318FE2D2308A0002007A100F8
:100BC8002108A3008A1167258A1183120313AC1C1C
:100BD800EF2D2314F32DFE30A0002008A3050000FC
:100BE800013083120313A0002008A2070830220254
:100BF800031CE02D2C148A112325831203132308C8
:100C08000800963083120313A0000030A1008A1157
:100C1800B0258A1138308A117C248A113230831227
:100C28000313A0000030A1008A11B0258A113830C2
:100C38008A117C248A11323083120313A0000030F9
:100C4800A1008A11B0258A1138308A117C248A11B2
:100C580038308A1170248A1108308A1170248A1158
:100C680001308A1170248A1106308A1170248A1181
:100C78000C308A1170240800C730831603138600CD
:100C88008801E730870083120313A40100308A111A
:100C9800BA248A1183120313A40101308A11BA24D9
:100CA8008A1183120313A40102308A11BA248A110B
:100CB800053083120313A9002908A40003308A1100
:100CC800BA248A11083083120313A9002908A40042
:100CD80004308A11BA248A11143083120313A9002C
:100CE8002908A40005308A11BA248A110430831215
:100CF8000313A9002908A40006308A11BA248A110E
:100D0800083083120313A9002908A40007308A11A8
:100D1800BA248A11253083120313A9002908A400D4
:100D280008308A11BA248A118A1105268A11963048
:100D380083120313A0000030A1008A11B0258A1184
:100D480008308A118B258A1183120313A9002908F8
:100D5800AB00A5013230A9002908A60000308A118D
:100D6800A9248A1183120313A5013030A900290888
:100D7800A60001308A11A9248A1183120313A50140
:100D88002B08A90004300310A90CFF3E031DC72E31
:100D980029080F39303EAA002A08A60002308A1115
:100DA800A9248A1183120313A5012B080F39303E99
:100DB800A9002908A60003308A11A9248A118312E0
:100DC8000313A5012E30A9002908A60004308A11B2
:100DD800A9248A1107308A118B258A1183120313DB
:100DE800A9002908AB00A5012B08A90004300310AD
:100DF800A90CFF3E031DFB2E29080139303EAA002D
:100E08002A08A60005308A11A9248A11831203131F
:100E1800A5012B080F39303EA9002908A600063085
:100E28008A11A9248A1183120313A5012E30A9005F
:100E38002908A60007308A11A9248A1105308A11C9
:100E48008B258A1183120313A9002908AB00A50179
:100E58002B08A90004300310A90CFF3E031D2F2FF7
:100E680029080339303EAA002A08A60008308A114A
:100E7800A9248A1183120313A5012B080F39303EC8
:100E8800A9002908A60009308A11A9248A1104306A
:100E98008A118B258A1183120313A9002908AB0034
:100EA800A501A50A2B08A90004300310A90CFF3ED0
:100EB800031D592F29080339303EAA002A08A60025
:100EC80000308A11A9248A1183120313A501A50AE7
:100ED8002B080F39303EA9002908A60001308A11D5
:100EE800A9248A1183120313A501A50A3A30A9007F
:100EF8002908A60002308A11A9248A1103308A1110
:100F08008B258A1183120313A9002908AB00A501B8
:100F1800A50A2B08A90004300310A90CFF3E031DE5
:100F2800902F29080F39303EAA002A08A60003305E
:100F38008A11A9248A1183120313A501A50A2B0873
:100F48000F39303EA9002908A60004308A11A924C7
:100F58008A1183120313A501A50A3A30A9002908AA
:100F6800A60005308A11A9248A1102308A118B251E
:100F78008A1183120313A9002908AB00A501A50A49
:100F88002B08A90004300310A90CFF3E031DC72F2E
:100F980029080739303EAA002A08A60006308A1117
:100FA800A9248A1183120313A501A50A2B080F3956
:100FB800303EA9002908A60007308A11A9248A1101
:100FC80006308A118B258A1183120313A900290878
:100FD800AB00A501A50A2B080F39303EA900290846
:100FE800A6000A308A11A9248A119B2E83120313A2
:080FF800AC0183018A11402EB7
:02400E00FAFFB7
:00000001FF
